{
  "_format": "hh-sol-artifact-1",
  "contractName": "UjuziRegistryV2",
  "sourceName": "contracts/UjuziRegistryV2.sol",
  "abi": [
    {
      "inputs": [],
      "stateMutability": "nonpayable",
      "type": "constructor"
    },
    {
      "anonymous": false,
      "inputs": [
        {
          "indexed": false,
          "internalType": "uint8",
          "name": "version",
          "type": "uint8"
        }
      ],
      "name": "Initialized",
      "type": "event"
    },
    {
      "anonymous": false,
      "inputs": [
        {
          "indexed": true,
          "internalType": "bytes32",
          "name": "role",
          "type": "bytes32"
        },
        {
          "indexed": true,
          "internalType": "bytes32",
          "name": "previousAdminRole",
          "type": "bytes32"
        },
        {
          "indexed": true,
          "internalType": "bytes32",
          "name": "newAdminRole",
          "type": "bytes32"
        }
      ],
      "name": "RoleAdminChanged",
      "type": "event"
    },
    {
      "anonymous": false,
      "inputs": [
        {
          "indexed": true,
          "internalType": "bytes32",
          "name": "role",
          "type": "bytes32"
        },
        {
          "indexed": true,
          "internalType": "address",
          "name": "account",
          "type": "address"
        },
        {
          "indexed": true,
          "internalType": "address",
          "name": "sender",
          "type": "address"
        }
      ],
      "name": "RoleGranted",
      "type": "event"
    },
    {
      "anonymous": false,
      "inputs": [
        {
          "indexed": true,
          "internalType": "bytes32",
          "name": "role",
          "type": "bytes32"
        },
        {
          "indexed": true,
          "internalType": "address",
          "name": "account",
          "type": "address"
        },
        {
          "indexed": true,
          "internalType": "address",
          "name": "sender",
          "type": "address"
        }
      ],
      "name": "RoleRevoked",
      "type": "event"
    },
    {
      "inputs": [],
      "name": "DEFAULT_ADMIN_ROLE",
      "outputs": [
        {
          "internalType": "bytes32",
          "name": "",
          "type": "bytes32"
        }
      ],
      "stateMutability": "view",
      "type": "function"
    },
    {
      "inputs": [],
      "name": "VALIDATOR_ROLE",
      "outputs": [
        {
          "internalType": "bytes32",
          "name": "",
          "type": "bytes32"
        }
      ],
      "stateMutability": "view",
      "type": "function"
    },
    {
      "inputs": [
        {
          "internalType": "uint256",
          "name": "entryId",
          "type": "uint256"
        },
        {
          "internalType": "string[]",
          "name": "tags",
          "type": "string[]"
        }
      ],
      "name": "addTagsToEntry",
      "outputs": [],
      "stateMutability": "nonpayable",
      "type": "function"
    },
    {
      "inputs": [
        {
          "internalType": "address",
          "name": "",
          "type": "address"
        },
        {
          "internalType": "uint256",
          "name": "",
          "type": "uint256"
        }
      ],
      "name": "authorEntries",
      "outputs": [
        {
          "internalType": "uint256",
          "name": "",
          "type": "uint256"
        }
      ],
      "stateMutability": "view",
      "type": "function"
    },
    {
      "inputs": [
        {
          "internalType": "bytes32",
          "name": "",
          "type": "bytes32"
        }
      ],
      "name": "cidExists",
      "outputs": [
        {
          "internalType": "bool",
          "name": "",
          "type": "bool"
        }
      ],
      "stateMutability": "view",
      "type": "function"
    },
    {
      "inputs": [
        {
          "internalType": "bytes32",
          "name": "",
          "type": "bytes32"
        }
      ],
      "name": "cidToEntryId",
      "outputs": [
        {
          "internalType": "uint256",
          "name": "",
          "type": "uint256"
        }
      ],
      "stateMutability": "view",
      "type": "function"
    },
    {
      "inputs": [
        {
          "internalType": "uint256",
          "name": "",
          "type": "uint256"
        }
      ],
      "name": "entries",
      "outputs": [
        {
          "internalType": "bytes32",
          "name": "cid",
          "type": "bytes32"
        },
        {
          "internalType": "address",
          "name": "author",
          "type": "address"
        },
        {
          "internalType": "uint256",
          "name": "timestamp",
          "type": "uint256"
        },
        {
          "internalType": "enum IUjuziRegistry.LicenseType",
          "name": "license",
          "type": "uint8"
        },
        {
          "internalType": "enum IUjuziRegistry.EntryStatus",
          "name": "status",
          "type": "uint8"
        },
        {
          "internalType": "string",
          "name": "language",
          "type": "string"
        },
        {
          "internalType": "string",
          "name": "community",
          "type": "string"
        },
        {
          "internalType": "uint256",
          "name": "validationScore",
          "type": "uint256"
        }
      ],
      "stateMutability": "view",
      "type": "function"
    },
    {
      "inputs": [
        {
          "internalType": "uint256",
          "name": "",
          "type": "uint256"
        },
        {
          "internalType": "uint256",
          "name": "",
          "type": "uint256"
        }
      ],
      "name": "entryTags",
      "outputs": [
        {
          "internalType": "string",
          "name": "",
          "type": "string"
        }
      ],
      "stateMutability": "view",
      "type": "function"
    },
    {
      "inputs": [
        {
          "internalType": "uint256",
          "name": "",
          "type": "uint256"
        },
        {
          "internalType": "uint256",
          "name": "",
          "type": "uint256"
        }
      ],
      "name": "entryValidators",
      "outputs": [
        {
          "internalType": "address",
          "name": "",
          "type": "address"
        }
      ],
      "stateMutability": "view",
      "type": "function"
    },
    {
      "inputs": [],
      "name": "entryVersion",
      "outputs": [
        {
          "internalType": "uint256",
          "name": "",
          "type": "uint256"
        }
      ],
      "stateMutability": "view",
      "type": "function"
    },
    {
      "inputs": [
        {
          "internalType": "string",
          "name": "tag",
          "type": "string"
        }
      ],
      "name": "getEntriesByTag",
      "outputs": [
        {
          "internalType": "uint256[]",
          "name": "",
          "type": "uint256[]"
        }
      ],
      "stateMutability": "view",
      "type": "function"
    },
    {
      "inputs": [
        {
          "internalType": "uint256",
          "name": "entryId",
          "type": "uint256"
        }
      ],
      "name": "getEntry",
      "outputs": [
        {
          "components": [
            {
              "internalType": "bytes32",
              "name": "cid",
              "type": "bytes32"
            },
            {
              "internalType": "address",
              "name": "author",
              "type": "address"
            },
            {
              "internalType": "uint256",
              "name": "timestamp",
              "type": "uint256"
            },
            {
              "internalType": "enum IUjuziRegistry.LicenseType",
              "name": "license",
              "type": "uint8"
            },
            {
              "internalType": "enum IUjuziRegistry.EntryStatus",
              "name": "status",
              "type": "uint8"
            },
            {
              "internalType": "string",
              "name": "language",
              "type": "string"
            },
            {
              "internalType": "string",
              "name": "community",
              "type": "string"
            },
            {
              "internalType": "uint256",
              "name": "validationScore",
              "type": "uint256"
            },
            {
              "internalType": "bytes32[]",
              "name": "atomHashes",
              "type": "bytes32[]"
            }
          ],
          "internalType": "struct IUjuziRegistry.CulturalEntry",
          "name": "",
          "type": "tuple"
        }
      ],
      "stateMutability": "view",
      "type": "function"
    },
    {
      "inputs": [
        {
          "internalType": "uint256",
          "name": "entryId",
          "type": "uint256"
        }
      ],
      "name": "getEntryTags",
      "outputs": [
        {
          "internalType": "string[]",
          "name": "",
          "type": "string[]"
        }
      ],
      "stateMutability": "view",
      "type": "function"
    },
    {
      "inputs": [
        {
          "internalType": "bytes32",
          "name": "role",
          "type": "bytes32"
        }
      ],
      "name": "getRoleAdmin",
      "outputs": [
        {
          "internalType": "bytes32",
          "name": "",
          "type": "bytes32"
        }
      ],
      "stateMutability": "view",
      "type": "function"
    },
    {
      "inputs": [],
      "name": "getTotalEntries",
      "outputs": [
        {
          "internalType": "uint256",
          "name": "",
          "type": "uint256"
        }
      ],
      "stateMutability": "view",
      "type": "function"
    },
    {
      "inputs": [],
      "name": "getVersion",
      "outputs": [
        {
          "internalType": "uint256",
          "name": "",
          "type": "uint256"
        }
      ],
      "stateMutability": "view",
      "type": "function"
    },
    {
      "inputs": [
        {
          "internalType": "bytes32",
          "name": "role",
          "type": "bytes32"
        },
        {
          "internalType": "address",
          "name": "account",
          "type": "address"
        }
      ],
      "name": "grantRole",
      "outputs": [],
      "stateMutability": "nonpayable",
      "type": "function"
    },
    {
      "inputs": [
        {
          "internalType": "bytes32",
          "name": "role",
          "type": "bytes32"
        },
        {
          "internalType": "address",
          "name": "account",
          "type": "address"
        }
      ],
      "name": "hasRole",
      "outputs": [
        {
          "internalType": "bool",
          "name": "",
          "type": "bool"
        }
      ],
      "stateMutability": "view",
      "type": "function"
    },
    {
      "inputs": [
        {
          "internalType": "uint256",
          "name": "",
          "type": "uint256"
        },
        {
          "internalType": "address",
          "name": "",
          "type": "address"
        }
      ],
      "name": "hasValidated",
      "outputs": [
        {
          "internalType": "bool",
          "name": "",
          "type": "bool"
        }
      ],
      "stateMutability": "view",
      "type": "function"
    },
    {
      "inputs": [
        {
          "internalType": "address",
          "name": "admin",
          "type": "address"
        }
      ],
      "name": "initialize",
      "outputs": [],
      "stateMutability": "nonpayable",
      "type": "function"
    },
    {
      "inputs": [
        {
          "internalType": "bytes32",
          "name": "role",
          "type": "bytes32"
        },
        {
          "internalType": "address",
          "name": "account",
          "type": "address"
        }
      ],
      "name": "renounceRole",
      "outputs": [],
      "stateMutability": "nonpayable",
      "type": "function"
    },
    {
      "inputs": [
        {
          "internalType": "bytes32",
          "name": "role",
          "type": "bytes32"
        },
        {
          "internalType": "address",
          "name": "account",
          "type": "address"
        }
      ],
      "name": "revokeRole",
      "outputs": [],
      "stateMutability": "nonpayable",
      "type": "function"
    },
    {
      "inputs": [
        {
          "internalType": "bytes32",
          "name": "cid",
          "type": "bytes32"
        },
        {
          "internalType": "enum IUjuziRegistry.LicenseType",
          "name": "license",
          "type": "uint8"
        },
        {
          "internalType": "string",
          "name": "language",
          "type": "string"
        },
        {
          "internalType": "string",
          "name": "community",
          "type": "string"
        },
        {
          "internalType": "bytes32[]",
          "name": "atomHashes",
          "type": "bytes32[]"
        }
      ],
      "name": "submitEntry",
      "outputs": [
        {
          "internalType": "uint256",
          "name": "",
          "type": "uint256"
        }
      ],
      "stateMutability": "nonpayable",
      "type": "function"
    },
    {
      "inputs": [
        {
          "internalType": "bytes4",
          "name": "interfaceId",
          "type": "bytes4"
        }
      ],
      "name": "supportsInterface",
      "outputs": [
        {
          "internalType": "bool",
          "name": "",
          "type": "bool"
        }
      ],
      "stateMutability": "view",
      "type": "function"
    },
    {
      "inputs": [
        {
          "internalType": "string",
          "name": "",
          "type": "string"
        },
        {
          "internalType": "uint256",
          "name": "",
          "type": "uint256"
        }
      ],
      "name": "tagToEntries",
      "outputs": [
        {
          "internalType": "uint256",
          "name": "",
          "type": "uint256"
        }
      ],
      "stateMutability": "view",
      "type": "function"
    },
    {
      "inputs": [
        {
          "internalType": "uint256",
          "name": "entryId",
          "type": "uint256"
        },
        {
          "internalType": "bool",
          "name": "approve",
          "type": "bool"
        },
        {
          "internalType": "string",
          "name": "notes",
          "type": "string"
        }
      ],
      "name": "validateEntry",
      "outputs": [],
      "stateMutability": "nonpayable",
      "type": "function"
    }
  ],
  "bytecode": "0x608060405234801561001057600080fd5b5061001961001e565b6100dd565b600054610100900460ff161561008a5760405162461bcd60e51b815260206004820152602760248201527f496e697469616c697a61626c653a20636f6e747261637420697320696e697469604482015266616c697a696e6760c81b606482015260840160405180910390fd5b60005460ff908116146100db576000805460ff191660ff9081179091556040519081527f7f26b83ff96e1f2b6a682f133852f6798a09c465da95921460cefb38474024989060200160405180910390a15b565b6122e580620000ed6000396000f3fe608060405234801561001057600080fd5b506004361061018e5760003560e01c80638f37c540116100de578063a9b2b91911610097578063c49baebe11610071578063c49baebe146103c3578063c4d66de8146103ea578063d547741f146103fd578063eeea8b9d1461041057600080fd5b8063a9b2b91914610369578063b30906d41461037c578063bae78d7b146103a357600080fd5b80638f37c540146102f257806391d14854146103125780639cd2f657146103255780639dccdfb014610345578063a217fddf14610358578063a7f516d71461036057600080fd5b8063279f42701161014b5780634990594f116101255780634990594f1461028e5780634dd8ada8146102a15780634fc5660d146102b457806357a7afca146102c757600080fd5b8063279f4270146102465780632f2ff15d1461026657806336568abe1461027b57600080fd5b806301ffc9a7146101935780630d8e6e2c146101bb5780630d9dde67146101cd57806312d491c9146101fb5780632103957414610203578063248a9ca314610223575b600080fd5b6101a66101a1366004611861565b610433565b60405190151581526020015b60405180910390f35b609f545b6040519081526020016101b2565b6101a66101db3660046118a7565b609960209081526000928352604080842090915290825290205460ff1681565b6097546101bf565b6102166102113660046118d3565b61046a565b6040516101b29190611945565b6101bf610231366004611958565b60009081526065602052604090206001015490565b610259610254366004611958565b610523565b6040516101b29190611971565b6102796102743660046118a7565b61060f565b005b6102796102893660046118a7565b610639565b61027961029c366004611a1c565b6106bc565b6102796102af366004611ac2565b6108ed565b6101bf6102c2366004611b0e565b610a85565b6102da6102d53660046118d3565b610ab6565b6040516001600160a01b0390911681526020016101b2565b610305610300366004611b38565b610aee565b6040516101b29190611b7a565b6101a66103203660046118a7565b610b61565b6101bf610333366004611958565b609a6020526000908152604090205481565b6101bf610353366004611bbe565b610b8c565b6101bf600081565b6101bf609f5481565b6101bf610377366004611c8e565b610ee2565b61038f61038a366004611958565b610f0d565b6040516101b2989796959493929190611d84565b6103b66103b1366004611958565b611085565b6040516101b29190611e37565b6101bf7f21702c8af46127c7fa207f89d0b0a8441bb32959a0ac7df790e9ab1a25c9892681565b6102796103f8366004611efd565b611346565b61027961040b3660046118a7565b611467565b6101a661041e366004611958565b609b6020526000908152604090205460ff1681565b60006001600160e01b03198216637965db0b60e01b148061046457506301ffc9a760e01b6001600160e01b03198316145b92915050565b609d602052816000526040600020818154811061048657600080fd5b906000526020600020016000915091505080546104a290611f18565b80601f01602080910402602001604051908101604052809291908181526020018280546104ce90611f18565b801561051b5780601f106104f05761010080835404028352916020019161051b565b820191906000526020600020905b8154815290600101906020018083116104fe57829003601f168201915b505050505081565b6060609d6000838152602001908152602001600020805480602002602001604051908101604052809291908181526020016000905b8282101561060457838290600052602060002001805461057790611f18565b80601f01602080910402602001604051908101604052809291908181526020018280546105a390611f18565b80156105f05780601f106105c5576101008083540402835291602001916105f0565b820191906000526020600020905b8154815290600101906020018083116105d357829003601f168201915b505050505081526020019060010190610558565b505050509050919050565b60008281526065602052604090206001015461062a8161148c565b6106348383611499565b505050565b6001600160a01b03811633146106ae5760405162461bcd60e51b815260206004820152602f60248201527f416363657373436f6e74726f6c3a2063616e206f6e6c792072656e6f756e636560448201526e103937b632b9903337b91039b2b63360891b60648201526084015b60405180910390fd5b6106b8828261151f565b5050565b6106e67f21702c8af46127c7fa207f89d0b0a8441bb32959a0ac7df790e9ab1a25c9892633610b61565b6107245760405162461bcd60e51b815260206004820152600f60248201526e2737ba1030903b30b634b230ba37b960891b60448201526064016106a5565b60975484106107455760405162461bcd60e51b81526004016106a590611f52565b600084815260996020908152604080832033845290915290205460ff16156107a35760405162461bcd60e51b8152602060048201526011602482015270105b1c9958591e481d985b1a59185d1959607a1b60448201526064016106a5565b6000609785815481106107b8576107b8611f7c565b6000918252602082206008909102019150600382810154610100900460ff16908111156107e7576107e7611d43565b146108285760405162461bcd60e51b8152602060048201526011602482015270456e747279206e6f742070656e64696e6760781b60448201526064016106a5565b600085815260996020908152604080832033808552908352818420805460ff19166001908117909155898552609884529184208054928301815584529190922090910180546001600160a01b0319169091179055831561089e5760068101805490600061089483611fa8565b91905055506108c8565b60008160060154116108b15760006108c2565b600181600601546108c29190611fc1565b60068201555b60038160060154106108e65760038101805461ff0019166101001790555b5050505050565b609754831061090e5760405162461bcd60e51b81526004016106a590611f52565b6109387f21702c8af46127c7fa207f89d0b0a8441bb32959a0ac7df790e9ab1a25c9892633610b61565b8061097a5750336001600160a01b03166097848154811061095b5761095b611f7c565b60009182526020909120600160089092020101546001600160a01b0316145b6109b75760405162461bcd60e51b815260206004820152600e60248201526d139bdd08185d5d1a1bdc9a5e995960921b60448201526064016106a5565b60005b81811015610a7f576000848152609d602052604090208383838181106109e2576109e2611f7c565b90506020028101906109f49190611fd4565b82546001810184556000938452602090932090920191610a149183612069565b50609e838383818110610a2957610a29611f7c565b9050602002810190610a3b9190611fd4565b604051610a49929190612129565b90815260405160209181900382019020805460018101825560009182529190200184905580610a7781611fa8565b9150506109ba565b50505050565b609c6020528160005260406000208181548110610aa157600080fd5b90600052602060002001600091509150505481565b60986020528160005260406000208181548110610ad257600080fd5b6000918252602090912001546001600160a01b03169150829050565b6060609e8383604051610b02929190612129565b9081526040805191829003602090810183208054808302850183019093528284529190830182828015610b5457602002820191906000526020600020905b815481526020019060010190808311610b40575b5050505050905092915050565b60009182526065602090815260408084206001600160a01b0393909316845291905290205460ff1690565b600088610bc95760405162461bcd60e51b815260206004820152600b60248201526a125b9d985b1a590810d25160aa1b60448201526064016106a5565b6000898152609b602052604090205460ff1615610c1d5760405162461bcd60e51b815260206004820152601260248201527143494420616c72656164792065786973747360701b60448201526064016106a5565b60975460408051610120810182528b81523360208201524291810191909152600090606081018b6003811115610c5557610c55611d43565b8152602001600081526020018a8a8080601f016020809104026020016040519081016040528093929190818152602001838380828437600092019190915250505090825250604080516020601f8b0181900481028201810190925289815291810191908a908a90819084018382808284376000920182905250938552505050602080830191909152604080518883028181018401835289825291909301929189918991829190850190849080828437600092018290525093909452505060978054600180820183559190925283517f354a83ed9988f79f6038d4c7a7dadbad8af32f4ad6df893e0e5807a1b1944ff9600890930292830190815560208501517f354a83ed9988f79f6038d4c7a7dadbad8af32f4ad6df893e0e5807a1b1944ffa840180546001600160a01b0319166001600160a01b0390921691909117905560408501517f354a83ed9988f79f6038d4c7a7dadbad8af32f4ad6df893e0e5807a1b1944ffb84015560608501517f354a83ed9988f79f6038d4c7a7dadbad8af32f4ad6df893e0e5807a1b1944ffc909301805495965086959194509160ff1990911690836003811115610e0a57610e0a611d43565b021790555060808201518160030160016101000a81548160ff02191690836003811115610e3957610e39611d43565b021790555060a08201516004820190610e529082612139565b5060c08201516005820190610e679082612139565b5060e082015160068201556101008201518051610e8e916007840191602090910190611801565b50505060008b8152609a60209081526040808320859055609b8252808320805460ff19166001908117909155338452609c835290832080549182018155835291200182905550905098975050505050505050565b8151602081840181018051609e825292820191850191909120919052805482908110610aa157600080fd5b60978181548110610f1d57600080fd5b6000918252602090912060089091020180546001820154600283015460038401546004850180549496506001600160a01b0390931694919360ff8083169461010090930416929190610f6e90611f18565b80601f0160208091040260200160405190810160405280929190818152602001828054610f9a90611f18565b8015610fe75780601f10610fbc57610100808354040283529160200191610fe7565b820191906000526020600020905b815481529060010190602001808311610fca57829003601f168201915b505050505090806005018054610ffc90611f18565b80601f016020809104026020016040519081016040528092919081815260200182805461102890611f18565b80156110755780601f1061104a57610100808354040283529160200191611075565b820191906000526020600020905b81548152906001019060200180831161105857829003601f168201915b5050505050908060060154905088565b6110d46040805161012081018252600080825260208201819052918101829052906060820190815260200160008152602001606081526020016060815260200160008152602001606081525090565b60975482106110f55760405162461bcd60e51b81526004016106a590611f52565b6097828154811061110857611108611f7c565b6000918252602091829020604080516101208101825260089093029091018054835260018101546001600160a01b031693830193909352600283015490820152600380830154919291606084019160ff9091169081111561116b5761116b611d43565b600381111561117c5761117c611d43565b81526020016003820160019054906101000a900460ff1660038111156111a4576111a4611d43565b60038111156111b5576111b5611d43565b81526020016004820180546111c990611f18565b80601f01602080910402602001604051908101604052809291908181526020018280546111f590611f18565b80156112425780601f1061121757610100808354040283529160200191611242565b820191906000526020600020905b81548152906001019060200180831161122557829003601f168201915b5050505050815260200160058201805461125b90611f18565b80601f016020809104026020016040519081016040528092919081815260200182805461128790611f18565b80156112d45780601f106112a9576101008083540402835291602001916112d4565b820191906000526020600020905b8154815290600101906020018083116112b757829003601f168201915b50505050508152602001600682015481526020016007820180548060200260200160405190810160405280929190818152602001828054801561133657602002820191906000526020600020905b815481526020019060010190808311611322575b5050505050815250509050919050565b600054610100900460ff16158080156113665750600054600160ff909116105b806113805750303b158015611380575060005460ff166001145b6113e35760405162461bcd60e51b815260206004820152602e60248201527f496e697469616c697a61626c653a20636f6e747261637420697320616c72656160448201526d191e481a5b9a5d1a585b1a5e995960921b60648201526084016106a5565b6000805460ff191660011790558015611406576000805461ff0019166101001790555b61140e611586565b611419600083611499565b6002609f5580156106b8576000805461ff0019169055604051600181527f7f26b83ff96e1f2b6a682f133852f6798a09c465da95921460cefb38474024989060200160405180910390a15050565b6000828152606560205260409020600101546114828161148c565b610634838361151f565b61149681336115f3565b50565b6114a38282610b61565b6106b85760008281526065602090815260408083206001600160a01b03851684529091529020805460ff191660011790556114db3390565b6001600160a01b0316816001600160a01b0316837f2f8788117e7eff1d82e926ec794901d17c78024a50270940304540a733656f0d60405160405180910390a45050565b6115298282610b61565b156106b85760008281526065602090815260408083206001600160a01b0385168085529252808320805460ff1916905551339285917ff6391f5c32d9c69d2a47ea670b442974b53935d1edc7fd64eb21e047a839171b9190a45050565b600054610100900460ff166115f15760405162461bcd60e51b815260206004820152602b60248201527f496e697469616c697a61626c653a20636f6e7472616374206973206e6f74206960448201526a6e697469616c697a696e6760a81b60648201526084016106a5565b565b6115fd8282610b61565b6106b85761160a8161164c565b61161583602061165e565b6040516020016116269291906121f9565b60408051601f198184030181529082905262461bcd60e51b82526106a591600401611945565b60606104646001600160a01b03831660145b6060600061166d83600261226e565b611678906002612285565b67ffffffffffffffff81111561169057611690611c78565b6040519080825280601f01601f1916602001820160405280156116ba576020820181803683370190505b509050600360fc1b816000815181106116d5576116d5611f7c565b60200101906001600160f81b031916908160001a905350600f60fb1b8160018151811061170457611704611f7c565b60200101906001600160f81b031916908160001a905350600061172884600261226e565b611733906001612285565b90505b60018111156117ab576f181899199a1a9b1b9c1cb0b131b232b360811b85600f166010811061176757611767611f7c565b1a60f81b82828151811061177d5761177d611f7c565b60200101906001600160f81b031916908160001a90535060049490941c936117a481612298565b9050611736565b5083156117fa5760405162461bcd60e51b815260206004820181905260248201527f537472696e67733a20686578206c656e67746820696e73756666696369656e7460448201526064016106a5565b9392505050565b82805482825590600052602060002090810192821561183c579160200282015b8281111561183c578251825591602001919060010190611821565b5061184892915061184c565b5090565b5b80821115611848576000815560010161184d565b60006020828403121561187357600080fd5b81356001600160e01b0319811681146117fa57600080fd5b80356001600160a01b03811681146118a257600080fd5b919050565b600080604083850312156118ba57600080fd5b823591506118ca6020840161188b565b90509250929050565b600080604083850312156118e657600080fd5b50508035926020909101359150565b60005b838110156119105781810151838201526020016118f8565b50506000910152565b600081518084526119318160208601602086016118f5565b601f01601f19169290920160200192915050565b6020815260006117fa6020830184611919565b60006020828403121561196a57600080fd5b5035919050565b6000602080830181845280855180835260408601915060408160051b870101925083870160005b828110156119c657603f198886030184526119b4858351611919565b94509285019290850190600101611998565b5092979650505050505050565b60008083601f8401126119e557600080fd5b50813567ffffffffffffffff8111156119fd57600080fd5b602083019150836020828501011115611a1557600080fd5b9250929050565b60008060008060608587031215611a3257600080fd5b8435935060208501358015158114611a4957600080fd5b9250604085013567ffffffffffffffff811115611a6557600080fd5b611a71878288016119d3565b95989497509550505050565b60008083601f840112611a8f57600080fd5b50813567ffffffffffffffff811115611aa757600080fd5b6020830191508360208260051b8501011115611a1557600080fd5b600080600060408486031215611ad757600080fd5b83359250602084013567ffffffffffffffff811115611af557600080fd5b611b0186828701611a7d565b9497909650939450505050565b60008060408385031215611b2157600080fd5b611b2a8361188b565b946020939093013593505050565b60008060208385031215611b4b57600080fd5b823567ffffffffffffffff811115611b6257600080fd5b611b6e858286016119d3565b90969095509350505050565b6020808252825182820181905260009190848201906040850190845b81811015611bb257835183529284019291840191600101611b96565b50909695505050505050565b60008060008060008060008060a0898b031215611bda57600080fd5b88359750602089013560048110611bf057600080fd5b9650604089013567ffffffffffffffff80821115611c0d57600080fd5b611c198c838d016119d3565b909850965060608b0135915080821115611c3257600080fd5b611c3e8c838d016119d3565b909650945060808b0135915080821115611c5757600080fd5b50611c648b828c01611a7d565b999c989b5096995094979396929594505050565b634e487b7160e01b600052604160045260246000fd5b60008060408385031215611ca157600080fd5b823567ffffffffffffffff80821115611cb957600080fd5b818501915085601f830112611ccd57600080fd5b813581811115611cdf57611cdf611c78565b604051601f8201601f19908116603f01168101908382118183101715611d0757611d07611c78565b81604052828152886020848701011115611d2057600080fd5b826020860160208301376000602093820184015298969091013596505050505050565b634e487b7160e01b600052602160045260246000fd5b6004811061149657634e487b7160e01b600052602160045260246000fd5b611d8081611d59565b9052565b8881526001600160a01b0388166020820152604081018790526000610100611dab88611d59565b876060840152611dba87611d59565b8660808401528060a0840152611dd281840187611919565b905082810360c0840152611de68186611919565b9150508260e08301529998505050505050505050565b600081518084526020808501945080840160005b83811015611e2c57815187529582019590820190600101611e10565b509495945050505050565b602081528151602082015260006020830151611e5e60408401826001600160a01b03169052565b50604083015160608301526060830151611e7b6080840182611d77565b506080830151611e8e60a0840182611d77565b5060a08301516101208060c0850152611eab610140850183611919565b915060c0850151601f19808685030160e0870152611ec98483611919565b60e0880151610100888101919091528801518782039092018488015293509050611ef38382611dfc565b9695505050505050565b600060208284031215611f0f57600080fd5b6117fa8261188b565b600181811c90821680611f2c57607f821691505b602082108103611f4c57634e487b7160e01b600052602260045260246000fd5b50919050565b60208082526010908201526f125b9d985b1a5908195b9d1c9e48125160821b604082015260600190565b634e487b7160e01b600052603260045260246000fd5b634e487b7160e01b600052601160045260246000fd5b600060018201611fba57611fba611f92565b5060010190565b8181038181111561046457610464611f92565b6000808335601e19843603018112611feb57600080fd5b83018035915067ffffffffffffffff82111561200657600080fd5b602001915036819003821315611a1557600080fd5b601f82111561063457600081815260208120601f850160051c810160208610156120425750805b601f850160051c820191505b818110156120615782815560010161204e565b505050505050565b67ffffffffffffffff83111561208157612081611c78565b6120958361208f8354611f18565b8361201b565b6000601f8411600181146120c957600085156120b15750838201355b600019600387901b1c1916600186901b1783556108e6565b600083815260209020601f19861690835b828110156120fa57868501358255602094850194600190920191016120da565b50868210156121175760001960f88860031b161c19848701351681555b505060018560011b0183555050505050565b8183823760009101908152919050565b815167ffffffffffffffff81111561215357612153611c78565b612167816121618454611f18565b8461201b565b602080601f83116001811461219c57600084156121845750858301515b600019600386901b1c1916600185901b178555612061565b600085815260208120601f198616915b828110156121cb578886015182559484019460019091019084016121ac565b50858210156121e95787850151600019600388901b60f8161c191681555b5050505050600190811b01905550565b7f416363657373436f6e74726f6c3a206163636f756e74200000000000000000008152600083516122318160178501602088016118f5565b7001034b99036b4b9b9b4b733903937b6329607d1b60179184019182015283516122628160288401602088016118f5565b01602801949350505050565b808202811582820484141761046457610464611f92565b8082018082111561046457610464611f92565b6000816122a7576122a7611f92565b50600019019056fea264697066735822122087146ed28b3c084ed2ffb0ac691c2b27a47c5b3491a573a44f5d4175f6d0d57a64736f6c63430008110033",
  "linkReferences": {},
  "deployedLinkReferences": {}
}