{
  "_format": "hh-sol-artifact-1",
  "contractName": "ValidatorManager",
  "sourceName": "contracts/ValidatorManager.sol",
  "abi": [
    {
      "inputs": [],
      "stateMutability": "nonpayable",
      "type": "constructor"
    },
    {
      "anonymous": false,
      "inputs": [
        {
          "indexed": true,
          "internalType": "bytes32",
          "name": "role",
          "type": "bytes32"
        },
        {
          "indexed": true,
          "internalType": "bytes32",
          "name": "previousAdminRole",
          "type": "bytes32"
        },
        {
          "indexed": true,
          "internalType": "bytes32",
          "name": "newAdminRole",
          "type": "bytes32"
        }
      ],
      "name": "RoleAdminChanged",
      "type": "event"
    },
    {
      "anonymous": false,
      "inputs": [
        {
          "indexed": true,
          "internalType": "bytes32",
          "name": "role",
          "type": "bytes32"
        },
        {
          "indexed": true,
          "internalType": "address",
          "name": "account",
          "type": "address"
        },
        {
          "indexed": true,
          "internalType": "address",
          "name": "sender",
          "type": "address"
        }
      ],
      "name": "RoleGranted",
      "type": "event"
    },
    {
      "anonymous": false,
      "inputs": [
        {
          "indexed": true,
          "internalType": "bytes32",
          "name": "role",
          "type": "bytes32"
        },
        {
          "indexed": true,
          "internalType": "address",
          "name": "account",
          "type": "address"
        },
        {
          "indexed": true,
          "internalType": "address",
          "name": "sender",
          "type": "address"
        }
      ],
      "name": "RoleRevoked",
      "type": "event"
    },
    {
      "anonymous": false,
      "inputs": [
        {
          "indexed": false,
          "internalType": "uint256",
          "name": "oldThreshold",
          "type": "uint256"
        },
        {
          "indexed": false,
          "internalType": "uint256",
          "name": "newThreshold",
          "type": "uint256"
        }
      ],
      "name": "ValidationThresholdUpdated",
      "type": "event"
    },
    {
      "anonymous": false,
      "inputs": [
        {
          "indexed": true,
          "internalType": "address",
          "name": "validator",
          "type": "address"
        },
        {
          "indexed": false,
          "internalType": "uint256",
          "name": "stake",
          "type": "uint256"
        }
      ],
      "name": "ValidatorAdded",
      "type": "event"
    },
    {
      "anonymous": false,
      "inputs": [
        {
          "indexed": true,
          "internalType": "address",
          "name": "validator",
          "type": "address"
        }
      ],
      "name": "ValidatorRemoved",
      "type": "event"
    },
    {
      "anonymous": false,
      "inputs": [
        {
          "indexed": true,
          "internalType": "address",
          "name": "validator",
          "type": "address"
        },
        {
          "indexed": false,
          "internalType": "uint256",
          "name": "newReputation",
          "type": "uint256"
        }
      ],
      "name": "ValidatorReputationUpdated",
      "type": "event"
    },
    {
      "anonymous": false,
      "inputs": [
        {
          "indexed": false,
          "internalType": "uint256",
          "name": "oldStake",
          "type": "uint256"
        },
        {
          "indexed": false,
          "internalType": "uint256",
          "name": "newStake",
          "type": "uint256"
        }
      ],
      "name": "ValidatorStakeUpdated",
      "type": "event"
    },
    {
      "inputs": [],
      "name": "ADMIN_ROLE",
      "outputs": [
        {
          "internalType": "bytes32",
          "name": "",
          "type": "bytes32"
        }
      ],
      "stateMutability": "view",
      "type": "function"
    },
    {
      "inputs": [],
      "name": "DEFAULT_ADMIN_ROLE",
      "outputs": [
        {
          "internalType": "bytes32",
          "name": "",
          "type": "bytes32"
        }
      ],
      "stateMutability": "view",
      "type": "function"
    },
    {
      "inputs": [],
      "name": "VALIDATOR_ROLE",
      "outputs": [
        {
          "internalType": "bytes32",
          "name": "",
          "type": "bytes32"
        }
      ],
      "stateMutability": "view",
      "type": "function"
    },
    {
      "inputs": [],
      "name": "applyAsValidator",
      "outputs": [],
      "stateMutability": "payable",
      "type": "function"
    },
    {
      "inputs": [],
      "name": "getAllValidators",
      "outputs": [
        {
          "internalType": "address[]",
          "name": "",
          "type": "address[]"
        }
      ],
      "stateMutability": "view",
      "type": "function"
    },
    {
      "inputs": [
        {
          "internalType": "bytes32",
          "name": "role",
          "type": "bytes32"
        }
      ],
      "name": "getRoleAdmin",
      "outputs": [
        {
          "internalType": "bytes32",
          "name": "",
          "type": "bytes32"
        }
      ],
      "stateMutability": "view",
      "type": "function"
    },
    {
      "inputs": [],
      "name": "getValidationThreshold",
      "outputs": [
        {
          "internalType": "uint256",
          "name": "",
          "type": "uint256"
        }
      ],
      "stateMutability": "view",
      "type": "function"
    },
    {
      "inputs": [],
      "name": "getValidatorCount",
      "outputs": [
        {
          "internalType": "uint256",
          "name": "",
          "type": "uint256"
        }
      ],
      "stateMutability": "view",
      "type": "function"
    },
    {
      "inputs": [
        {
          "internalType": "address",
          "name": "validator",
          "type": "address"
        }
      ],
      "name": "getValidatorInfo",
      "outputs": [
        {
          "components": [
            {
              "internalType": "uint256",
              "name": "stake",
              "type": "uint256"
            },
            {
              "internalType": "uint256",
              "name": "validationCount",
              "type": "uint256"
            },
            {
              "internalType": "uint256",
              "name": "correctValidations",
              "type": "uint256"
            },
            {
              "internalType": "uint256",
              "name": "reputation",
              "type": "uint256"
            },
            {
              "internalType": "bool",
              "name": "isActive",
              "type": "bool"
            },
            {
              "internalType": "uint256",
              "name": "joinDate",
              "type": "uint256"
            }
          ],
          "internalType": "struct ValidatorManager.ValidatorInfo",
          "name": "",
          "type": "tuple"
        }
      ],
      "stateMutability": "view",
      "type": "function"
    },
    {
      "inputs": [
        {
          "internalType": "bytes32",
          "name": "role",
          "type": "bytes32"
        },
        {
          "internalType": "address",
          "name": "account",
          "type": "address"
        }
      ],
      "name": "grantRole",
      "outputs": [],
      "stateMutability": "nonpayable",
      "type": "function"
    },
    {
      "inputs": [
        {
          "internalType": "bytes32",
          "name": "role",
          "type": "bytes32"
        },
        {
          "internalType": "address",
          "name": "account",
          "type": "address"
        }
      ],
      "name": "hasRole",
      "outputs": [
        {
          "internalType": "bool",
          "name": "",
          "type": "bool"
        }
      ],
      "stateMutability": "view",
      "type": "function"
    },
    {
      "inputs": [
        {
          "internalType": "address",
          "name": "account",
          "type": "address"
        }
      ],
      "name": "isAdmin",
      "outputs": [
        {
          "internalType": "bool",
          "name": "",
          "type": "bool"
        }
      ],
      "stateMutability": "view",
      "type": "function"
    },
    {
      "inputs": [
        {
          "internalType": "address",
          "name": "account",
          "type": "address"
        }
      ],
      "name": "isValidator",
      "outputs": [
        {
          "internalType": "bool",
          "name": "",
          "type": "bool"
        }
      ],
      "stateMutability": "view",
      "type": "function"
    },
    {
      "inputs": [
        {
          "internalType": "address",
          "name": "validator",
          "type": "address"
        }
      ],
      "name": "removeValidator",
      "outputs": [],
      "stateMutability": "nonpayable",
      "type": "function"
    },
    {
      "inputs": [
        {
          "internalType": "bytes32",
          "name": "role",
          "type": "bytes32"
        },
        {
          "internalType": "address",
          "name": "account",
          "type": "address"
        }
      ],
      "name": "renounceRole",
      "outputs": [],
      "stateMutability": "nonpayable",
      "type": "function"
    },
    {
      "inputs": [
        {
          "internalType": "bytes32",
          "name": "role",
          "type": "bytes32"
        },
        {
          "internalType": "address",
          "name": "account",
          "type": "address"
        }
      ],
      "name": "revokeRole",
      "outputs": [],
      "stateMutability": "nonpayable",
      "type": "function"
    },
    {
      "inputs": [
        {
          "internalType": "uint256",
          "name": "newThreshold",
          "type": "uint256"
        }
      ],
      "name": "setValidationThreshold",
      "outputs": [],
      "stateMutability": "nonpayable",
      "type": "function"
    },
    {
      "inputs": [
        {
          "internalType": "uint256",
          "name": "newStake",
          "type": "uint256"
        }
      ],
      "name": "setValidatorStake",
      "outputs": [],
      "stateMutability": "nonpayable",
      "type": "function"
    },
    {
      "inputs": [
        {
          "internalType": "bytes4",
          "name": "interfaceId",
          "type": "bytes4"
        }
      ],
      "name": "supportsInterface",
      "outputs": [
        {
          "internalType": "bool",
          "name": "",
          "type": "bool"
        }
      ],
      "stateMutability": "view",
      "type": "function"
    },
    {
      "inputs": [
        {
          "internalType": "address",
          "name": "validator",
          "type": "address"
        },
        {
          "internalType": "bool",
          "name": "correctValidation",
          "type": "bool"
        }
      ],
      "name": "updateValidatorReputation",
      "outputs": [],
      "stateMutability": "nonpayable",
      "type": "function"
    },
    {
      "inputs": [],
      "name": "validationThreshold",
      "outputs": [
        {
          "internalType": "uint256",
          "name": "",
          "type": "uint256"
        }
      ],
      "stateMutability": "view",
      "type": "function"
    },
    {
      "inputs": [
        {
          "internalType": "uint256",
          "name": "",
          "type": "uint256"
        }
      ],
      "name": "validatorList",
      "outputs": [
        {
          "internalType": "address",
          "name": "",
          "type": "address"
        }
      ],
      "stateMutability": "view",
      "type": "function"
    },
    {
      "inputs": [],
      "name": "validatorStake",
      "outputs": [
        {
          "internalType": "uint256",
          "name": "",
          "type": "uint256"
        }
      ],
      "stateMutability": "view",
      "type": "function"
    },
    {
      "inputs": [
        {
          "internalType": "address",
          "name": "",
          "type": "address"
        }
      ],
      "name": "validators",
      "outputs": [
        {
          "internalType": "uint256",
          "name": "stake",
          "type": "uint256"
        },
        {
          "internalType": "uint256",
          "name": "validationCount",
          "type": "uint256"
        },
        {
          "internalType": "uint256",
          "name": "correctValidations",
          "type": "uint256"
        },
        {
          "internalType": "uint256",
          "name": "reputation",
          "type": "uint256"
        },
        {
          "internalType": "bool",
          "name": "isActive",
          "type": "bool"
        },
        {
          "internalType": "uint256",
          "name": "joinDate",
          "type": "uint256"
        }
      ],
      "stateMutability": "view",
      "type": "function"
    }
  ],
  "bytecode": "0x60806040526003600155662386f26fc1000060025534801561002057600080fd5b5061002c60003361005b565b6100567fa49807205ce4d355092ef5a8a18f56e8913cf4a201fbe287825b095693c217753361005b565b6100fa565b6000828152602081815260408083206001600160a01b038516845290915290205460ff166100f6576000828152602081815260408083206001600160a01b03851684529091529020805460ff191660011790556100b53390565b6001600160a01b0316816001600160a01b0316837f2f8788117e7eff1d82e926ec794901d17c78024a50270940304540a733656f0d60405160405180910390a45b5050565b6112ec806101096000396000f3fe60806040526004361061014b5760003560e01c806391d14854116100b6578063e447dcbe1161006f578063e447dcbe146103ec578063ed19dc7d1461040c578063eeb6babf1461042c578063f3513a3714610442578063fa52c7d814610464578063facd743b146104e957600080fd5b806391d148541461031d578063a217fddf1461033d578063b048e05614610352578063c49baebe1461038a578063d547741f146103ac578063d77187b2146103cc57600080fd5b806340a141ff1161010857806340a141ff1461023a57806358e312c41461025a5780637071688a1461027057806375b238fc146102855780638a11d7c9146102a75780638ebb69d31461031557600080fd5b806301ffc9a714610150578063248a9ca31461018557806324d7806c146101c35780632993946c146101e35780632f2ff15d146101f857806336568abe1461021a575b600080fd5b34801561015c57600080fd5b5061017061016b366004610fbd565b610509565b60405190151581526020015b60405180910390f35b34801561019157600080fd5b506101b56101a0366004610fe7565b60009081526020819052604090206001015490565b60405190815260200161017c565b3480156101cf57600080fd5b506101706101de36600461101c565b610540565b3480156101ef57600080fd5b506001546101b5565b34801561020457600080fd5b50610218610213366004611037565b61055a565b005b34801561022657600080fd5b50610218610235366004611037565b610584565b34801561024657600080fd5b5061021861025536600461101c565b610607565b34801561026657600080fd5b506101b560025481565b34801561027c57600080fd5b506004546101b5565b34801561029157600080fd5b506101b560008051602061129783398151915281565b3480156102b357600080fd5b506102c76102c236600461101c565b610731565b60405161017c9190600060c0820190508251825260208301516020830152604083015160408301526060830151606083015260808301511515608083015260a083015160a083015292915050565b6102186107d2565b34801561032957600080fd5b50610170610338366004611037565b610970565b34801561034957600080fd5b506101b5600081565b34801561035e57600080fd5b5061037261036d366004610fe7565b610999565b6040516001600160a01b03909116815260200161017c565b34801561039657600080fd5b506101b560008051602061127783398151915281565b3480156103b857600080fd5b506102186103c7366004611037565b6109c3565b3480156103d857600080fd5b506102186103e7366004610fe7565b6109e8565b3480156103f857600080fd5b50610218610407366004611063565b610a47565b34801561041857600080fd5b50610218610427366004610fe7565b610b6e565b34801561043857600080fd5b506101b560015481565b34801561044e57600080fd5b50610457610c14565b60405161017c919061109f565b34801561047057600080fd5b506104ba61047f36600461101c565b6003602081905260009182526040909120805460018201546002830154938301546004840154600590940154929491939192909160ff169086565b6040805196875260208701959095529385019290925260608401521515608083015260a082015260c00161017c565b3480156104f557600080fd5b5061017061050436600461101c565b610c76565b60006001600160e01b03198216637965db0b60e01b148061053a57506301ffc9a760e01b6001600160e01b03198316145b92915050565b600061053a60008051602061129783398151915283610970565b60008281526020819052604090206001015461057581610cb9565b61057f8383610cc6565b505050565b6001600160a01b03811633146105f95760405162461bcd60e51b815260206004820152602f60248201527f416363657373436f6e74726f6c3a2063616e206f6e6c792072656e6f756e636560448201526e103937b632b9903337b91039b2b63360891b60648201526084015b60405180910390fd5b6106038282610d4a565b5050565b60008051602061129783398151915261061f81610cb9565b61062882610c76565b6106665760405162461bcd60e51b815260206004820152600f60248201526e2737ba1030903b30b634b230ba37b960891b60448201526064016105f0565b6001600160a01b03821660009081526003602052604090205480156106bd576040516001600160a01b0384169082156108fc029083906000818181858888f193505050501580156106bb573d6000803e3d6000fd5b505b6001600160a01b0383166000908152600360205260409020600401805460ff191690556106f860008051602061127783398151915284610d4a565b6040516001600160a01b038416907fe1434e25d6611e0db941968fdc97811c982ac1602e951637d206f5fdda9dd8f190600090a2505050565b61076c6040518060c0016040528060008152602001600081526020016000815260200160008152602001600015158152602001600081525090565b506001600160a01b0316600090815260036020818152604092839020835160c08101855281548152600182015492810192909252600281015493820193909352908201546060820152600482015460ff161515608082015260059091015460a082015290565b6107db33610c76565b1561081e5760405162461bcd60e51b815260206004820152601360248201527220b63932b0b23c9030903b30b634b230ba37b960691b60448201526064016105f0565b6002543410156108655760405162461bcd60e51b8152602060048201526012602482015271496e73756666696369656e74207374616b6560701b60448201526064016105f0565b6040805160c081018252348152600060208083018281528385018381526064606086019081526001608087018181524260a08901908152338089526003978890529988209851895594518883015592516002880155905193860193909355516004808601805460ff1916921515929092179091559051600590940193909355825490810183559190527f8a35acfbc15ff81a39ae7d344fd709f28e8600b4aa8c65c6b64bfe7fe36bd19b0180546001600160a01b031916821790556109399060008051602061127783398151915290610cc6565b60405134815233907f9000b209805850a65058f21361a9978cb30f1413ed555553ab52a59b440b5d999060200160405180910390a2565b6000918252602082815260408084206001600160a01b0393909316845291905290205460ff1690565b600481815481106109a957600080fd5b6000918252602090912001546001600160a01b0316905081565b6000828152602081905260409020600101546109de81610cb9565b61057f8383610d4a565b600080516020611297833981519152610a0081610cb9565b600280549083905560408051828152602081018590527f1093db028025d2405a1aea589a8652d1f919bd517e7c7e858e0af317584d191391015b60405180910390a1505050565b600080516020611297833981519152610a5f81610cb9565b610a6883610c76565b610aa65760405162461bcd60e51b815260206004820152600f60248201526e2737ba1030903b30b634b230ba37b960891b60448201526064016105f0565b6001600160a01b03831660009081526003602052604081206001810180549192610acf83611102565b91905055508215610af257600281018054906000610aec83611102565b91905055505b600181015415610b215760018101546002820154610b1190606461111b565b610b1b9190611132565b60038201555b836001600160a01b03167fab44cf369c515aeee0fd7a04a22b828b34631d87a194380d624e91caace7ca668260030154604051610b6091815260200190565b60405180910390a250505050565b600080516020611297833981519152610b8681610cb9565b60008211610bd65760405162461bcd60e51b815260206004820152601a60248201527f5468726573686f6c64206d75737420626520706f73697469766500000000000060448201526064016105f0565b600180549083905560408051828152602081018590527f02d24ce8273c45a8430cf5fa1b2c724a6f391e79cff13ef910e32b554fe338959101610a3a565b60606004805480602002602001604051908101604052809291908181526020018280548015610c6c57602002820191906000526020600020905b81546001600160a01b03168152600190910190602001808311610c4e575b5050505050905090565b6000610c9060008051602061127783398151915283610970565b801561053a5750506001600160a01b031660009081526003602052604090206004015460ff1690565b610cc38133610daf565b50565b610cd08282610970565b610603576000828152602081815260408083206001600160a01b03851684529091529020805460ff19166001179055610d063390565b6001600160a01b0316816001600160a01b0316837f2f8788117e7eff1d82e926ec794901d17c78024a50270940304540a733656f0d60405160405180910390a45050565b610d548282610970565b15610603576000828152602081815260408083206001600160a01b0385168085529252808320805460ff1916905551339285917ff6391f5c32d9c69d2a47ea670b442974b53935d1edc7fd64eb21e047a839171b9190a45050565b610db98282610970565b61060357610dc681610e08565b610dd1836020610e1a565b604051602001610de2929190611178565b60408051601f198184030181529082905262461bcd60e51b82526105f0916004016111ed565b606061053a6001600160a01b03831660145b60606000610e2983600261111b565b610e34906002611220565b67ffffffffffffffff811115610e4c57610e4c611233565b6040519080825280601f01601f191660200182016040528015610e76576020820181803683370190505b509050600360fc1b81600081518110610e9157610e91611249565b60200101906001600160f81b031916908160001a905350600f60fb1b81600181518110610ec057610ec0611249565b60200101906001600160f81b031916908160001a9053506000610ee484600261111b565b610eef906001611220565b90505b6001811115610f67576f181899199a1a9b1b9c1cb0b131b232b360811b85600f1660108110610f2357610f23611249565b1a60f81b828281518110610f3957610f39611249565b60200101906001600160f81b031916908160001a90535060049490941c93610f608161125f565b9050610ef2565b508315610fb65760405162461bcd60e51b815260206004820181905260248201527f537472696e67733a20686578206c656e67746820696e73756666696369656e7460448201526064016105f0565b9392505050565b600060208284031215610fcf57600080fd5b81356001600160e01b031981168114610fb657600080fd5b600060208284031215610ff957600080fd5b5035919050565b80356001600160a01b038116811461101757600080fd5b919050565b60006020828403121561102e57600080fd5b610fb682611000565b6000806040838503121561104a57600080fd5b8235915061105a60208401611000565b90509250929050565b6000806040838503121561107657600080fd5b61107f83611000565b91506020830135801515811461109457600080fd5b809150509250929050565b6020808252825182820181905260009190848201906040850190845b818110156110e05783516001600160a01b0316835292840192918401916001016110bb565b50909695505050505050565b634e487b7160e01b600052601160045260246000fd5b600060018201611114576111146110ec565b5060010190565b808202811582820484141761053a5761053a6110ec565b60008261114f57634e487b7160e01b600052601260045260246000fd5b500490565b60005b8381101561116f578181015183820152602001611157565b50506000910152565b7f416363657373436f6e74726f6c3a206163636f756e74200000000000000000008152600083516111b0816017850160208801611154565b7001034b99036b4b9b9b4b733903937b6329607d1b60179184019182015283516111e1816028840160208801611154565b01602801949350505050565b602081526000825180602084015261120c816040850160208701611154565b601f01601f19169190910160400192915050565b8082018082111561053a5761053a6110ec565b634e487b7160e01b600052604160045260246000fd5b634e487b7160e01b600052603260045260246000fd5b60008161126e5761126e6110ec565b50600019019056fe21702c8af46127c7fa207f89d0b0a8441bb32959a0ac7df790e9ab1a25c98926a49807205ce4d355092ef5a8a18f56e8913cf4a201fbe287825b095693c21775a2646970667358221220886be0edd5ddf2644ce08a73884e6e01cf33049029b0d153b8255bd0b6c52f6864736f6c63430008110033",
  "linkReferences": {},
  "deployedLinkReferences": {}
}