{
  "_format": "hh-sol-artifact-1",
  "contractName": "CulturalToken",
  "sourceName": "contracts/CulturalToken.sol",
  "abi": [
    {
      "inputs": [],
      "stateMutability": "nonpayable",
      "type": "constructor"
    },
    {
      "anonymous": false,
      "inputs": [
        {
          "indexed": true,
          "internalType": "address",
          "name": "owner",
          "type": "address"
        },
        {
          "indexed": true,
          "internalType": "address",
          "name": "spender",
          "type": "address"
        },
        {
          "indexed": false,
          "internalType": "uint256",
          "name": "value",
          "type": "uint256"
        }
      ],
      "name": "Approval",
      "type": "event"
    },
    {
      "anonymous": false,
      "inputs": [
        {
          "indexed": true,
          "internalType": "address",
          "name": "from",
          "type": "address"
        },
        {
          "indexed": false,
          "internalType": "uint256",
          "name": "amount",
          "type": "uint256"
        },
        {
          "indexed": false,
          "internalType": "string",
          "name": "reason",
          "type": "string"
        }
      ],
      "name": "CulturalTokensBurned",
      "type": "event"
    },
    {
      "anonymous": false,
      "inputs": [
        {
          "indexed": true,
          "internalType": "address",
          "name": "to",
          "type": "address"
        },
        {
          "indexed": false,
          "internalType": "uint256",
          "name": "amount",
          "type": "uint256"
        },
        {
          "indexed": false,
          "internalType": "string",
          "name": "reason",
          "type": "string"
        }
      ],
      "name": "CulturalTokensMinted",
      "type": "event"
    },
    {
      "anonymous": false,
      "inputs": [
        {
          "indexed": true,
          "internalType": "bytes32",
          "name": "role",
          "type": "bytes32"
        },
        {
          "indexed": true,
          "internalType": "bytes32",
          "name": "previousAdminRole",
          "type": "bytes32"
        },
        {
          "indexed": true,
          "internalType": "bytes32",
          "name": "newAdminRole",
          "type": "bytes32"
        }
      ],
      "name": "RoleAdminChanged",
      "type": "event"
    },
    {
      "anonymous": false,
      "inputs": [
        {
          "indexed": true,
          "internalType": "bytes32",
          "name": "role",
          "type": "bytes32"
        },
        {
          "indexed": true,
          "internalType": "address",
          "name": "account",
          "type": "address"
        },
        {
          "indexed": true,
          "internalType": "address",
          "name": "sender",
          "type": "address"
        }
      ],
      "name": "RoleGranted",
      "type": "event"
    },
    {
      "anonymous": false,
      "inputs": [
        {
          "indexed": true,
          "internalType": "bytes32",
          "name": "role",
          "type": "bytes32"
        },
        {
          "indexed": true,
          "internalType": "address",
          "name": "account",
          "type": "address"
        },
        {
          "indexed": true,
          "internalType": "address",
          "name": "sender",
          "type": "address"
        }
      ],
      "name": "RoleRevoked",
      "type": "event"
    },
    {
      "anonymous": false,
      "inputs": [
        {
          "indexed": true,
          "internalType": "address",
          "name": "from",
          "type": "address"
        },
        {
          "indexed": true,
          "internalType": "address",
          "name": "to",
          "type": "address"
        },
        {
          "indexed": false,
          "internalType": "uint256",
          "name": "value",
          "type": "uint256"
        }
      ],
      "name": "Transfer",
      "type": "event"
    },
    {
      "inputs": [],
      "name": "BURNER_ROLE",
      "outputs": [
        {
          "internalType": "bytes32",
          "name": "",
          "type": "bytes32"
        }
      ],
      "stateMutability": "view",
      "type": "function"
    },
    {
      "inputs": [],
      "name": "DEFAULT_ADMIN_ROLE",
      "outputs": [
        {
          "internalType": "bytes32",
          "name": "",
          "type": "bytes32"
        }
      ],
      "stateMutability": "view",
      "type": "function"
    },
    {
      "inputs": [],
      "name": "MINTER_ROLE",
      "outputs": [
        {
          "internalType": "bytes32",
          "name": "",
          "type": "bytes32"
        }
      ],
      "stateMutability": "view",
      "type": "function"
    },
    {
      "inputs": [
        {
          "internalType": "address",
          "name": "owner",
          "type": "address"
        },
        {
          "internalType": "address",
          "name": "spender",
          "type": "address"
        }
      ],
      "name": "allowance",
      "outputs": [
        {
          "internalType": "uint256",
          "name": "",
          "type": "uint256"
        }
      ],
      "stateMutability": "view",
      "type": "function"
    },
    {
      "inputs": [
        {
          "internalType": "address",
          "name": "spender",
          "type": "address"
        },
        {
          "internalType": "uint256",
          "name": "amount",
          "type": "uint256"
        }
      ],
      "name": "approve",
      "outputs": [
        {
          "internalType": "bool",
          "name": "",
          "type": "bool"
        }
      ],
      "stateMutability": "nonpayable",
      "type": "function"
    },
    {
      "inputs": [
        {
          "internalType": "address",
          "name": "account",
          "type": "address"
        }
      ],
      "name": "balanceOf",
      "outputs": [
        {
          "internalType": "uint256",
          "name": "",
          "type": "uint256"
        }
      ],
      "stateMutability": "view",
      "type": "function"
    },
    {
      "inputs": [
        {
          "internalType": "address",
          "name": "from",
          "type": "address"
        },
        {
          "internalType": "uint256",
          "name": "amount",
          "type": "uint256"
        }
      ],
      "name": "burnCulturalTokens",
      "outputs": [],
      "stateMutability": "nonpayable",
      "type": "function"
    },
    {
      "inputs": [
        {
          "internalType": "address",
          "name": "",
          "type": "address"
        }
      ],
      "name": "culturalScores",
      "outputs": [
        {
          "internalType": "uint256",
          "name": "",
          "type": "uint256"
        }
      ],
      "stateMutability": "view",
      "type": "function"
    },
    {
      "inputs": [],
      "name": "decimals",
      "outputs": [
        {
          "internalType": "uint8",
          "name": "",
          "type": "uint8"
        }
      ],
      "stateMutability": "view",
      "type": "function"
    },
    {
      "inputs": [
        {
          "internalType": "address",
          "name": "spender",
          "type": "address"
        },
        {
          "internalType": "uint256",
          "name": "subtractedValue",
          "type": "uint256"
        }
      ],
      "name": "decreaseAllowance",
      "outputs": [
        {
          "internalType": "bool",
          "name": "",
          "type": "bool"
        }
      ],
      "stateMutability": "nonpayable",
      "type": "function"
    },
    {
      "inputs": [
        {
          "internalType": "address",
          "name": "account",
          "type": "address"
        }
      ],
      "name": "getCulturalScore",
      "outputs": [
        {
          "internalType": "uint256",
          "name": "",
          "type": "uint256"
        }
      ],
      "stateMutability": "view",
      "type": "function"
    },
    {
      "inputs": [
        {
          "internalType": "bytes32",
          "name": "role",
          "type": "bytes32"
        }
      ],
      "name": "getRoleAdmin",
      "outputs": [
        {
          "internalType": "bytes32",
          "name": "",
          "type": "bytes32"
        }
      ],
      "stateMutability": "view",
      "type": "function"
    },
    {
      "inputs": [
        {
          "internalType": "bytes32",
          "name": "role",
          "type": "bytes32"
        },
        {
          "internalType": "address",
          "name": "account",
          "type": "address"
        }
      ],
      "name": "grantRole",
      "outputs": [],
      "stateMutability": "nonpayable",
      "type": "function"
    },
    {
      "inputs": [
        {
          "internalType": "address",
          "name": "account",
          "type": "address"
        },
        {
          "internalType": "uint256",
          "name": "minScore",
          "type": "uint256"
        }
      ],
      "name": "hasMinimumScore",
      "outputs": [
        {
          "internalType": "bool",
          "name": "",
          "type": "bool"
        }
      ],
      "stateMutability": "view",
      "type": "function"
    },
    {
      "inputs": [
        {
          "internalType": "bytes32",
          "name": "role",
          "type": "bytes32"
        },
        {
          "internalType": "address",
          "name": "account",
          "type": "address"
        }
      ],
      "name": "hasRole",
      "outputs": [
        {
          "internalType": "bool",
          "name": "",
          "type": "bool"
        }
      ],
      "stateMutability": "view",
      "type": "function"
    },
    {
      "inputs": [
        {
          "internalType": "address",
          "name": "spender",
          "type": "address"
        },
        {
          "internalType": "uint256",
          "name": "addedValue",
          "type": "uint256"
        }
      ],
      "name": "increaseAllowance",
      "outputs": [
        {
          "internalType": "bool",
          "name": "",
          "type": "bool"
        }
      ],
      "stateMutability": "nonpayable",
      "type": "function"
    },
    {
      "inputs": [
        {
          "internalType": "address",
          "name": "to",
          "type": "address"
        },
        {
          "internalType": "uint256",
          "name": "amount",
          "type": "uint256"
        }
      ],
      "name": "mintCulturalTokens",
      "outputs": [],
      "stateMutability": "nonpayable",
      "type": "function"
    },
    {
      "inputs": [],
      "name": "name",
      "outputs": [
        {
          "internalType": "string",
          "name": "",
          "type": "string"
        }
      ],
      "stateMutability": "view",
      "type": "function"
    },
    {
      "inputs": [
        {
          "internalType": "bytes32",
          "name": "role",
          "type": "bytes32"
        },
        {
          "internalType": "address",
          "name": "account",
          "type": "address"
        }
      ],
      "name": "renounceRole",
      "outputs": [],
      "stateMutability": "nonpayable",
      "type": "function"
    },
    {
      "inputs": [
        {
          "internalType": "bytes32",
          "name": "role",
          "type": "bytes32"
        },
        {
          "internalType": "address",
          "name": "account",
          "type": "address"
        }
      ],
      "name": "revokeRole",
      "outputs": [],
      "stateMutability": "nonpayable",
      "type": "function"
    },
    {
      "inputs": [
        {
          "internalType": "bytes4",
          "name": "interfaceId",
          "type": "bytes4"
        }
      ],
      "name": "supportsInterface",
      "outputs": [
        {
          "internalType": "bool",
          "name": "",
          "type": "bool"
        }
      ],
      "stateMutability": "view",
      "type": "function"
    },
    {
      "inputs": [],
      "name": "symbol",
      "outputs": [
        {
          "internalType": "string",
          "name": "",
          "type": "string"
        }
      ],
      "stateMutability": "view",
      "type": "function"
    },
    {
      "inputs": [],
      "name": "totalSupply",
      "outputs": [
        {
          "internalType": "uint256",
          "name": "",
          "type": "uint256"
        }
      ],
      "stateMutability": "view",
      "type": "function"
    },
    {
      "inputs": [
        {
          "internalType": "address",
          "name": "to",
          "type": "address"
        },
        {
          "internalType": "uint256",
          "name": "amount",
          "type": "uint256"
        }
      ],
      "name": "transfer",
      "outputs": [
        {
          "internalType": "bool",
          "name": "",
          "type": "bool"
        }
      ],
      "stateMutability": "nonpayable",
      "type": "function"
    },
    {
      "inputs": [
        {
          "internalType": "address",
          "name": "from",
          "type": "address"
        },
        {
          "internalType": "address",
          "name": "to",
          "type": "address"
        },
        {
          "internalType": "uint256",
          "name": "amount",
          "type": "uint256"
        }
      ],
      "name": "transferFrom",
      "outputs": [
        {
          "internalType": "bool",
          "name": "",
          "type": "bool"
        }
      ],
      "stateMutability": "nonpayable",
      "type": "function"
    }
  ],
  "bytecode": "0x60806040523480156200001157600080fd5b506040518060400160405280601881526020017f4166726956657273652043756c747572616c20546f6b656e000000000000000081525060405180604001604052806005815260200164414652494360d81b815250816003908162000077919062000240565b50600462000086828262000240565b506200009891506000905033620000f6565b620000c47f9f2df0fed2c77648de5860a4cc508cd0818c85b8b8a1ab4ceeef8d981c8956a633620000f6565b620000f07f3c11d16cbaffd01df69ce1c404f6340ee057498f5f00246190ea54220576a84833620000f6565b6200030c565b60008281526005602090815260408083206001600160a01b038516845290915290205460ff16620001975760008281526005602090815260408083206001600160a01b03851684529091529020805460ff19166001179055620001563390565b6001600160a01b0316816001600160a01b0316837f2f8788117e7eff1d82e926ec794901d17c78024a50270940304540a733656f0d60405160405180910390a45b5050565b634e487b7160e01b600052604160045260246000fd5b600181811c90821680620001c657607f821691505b602082108103620001e757634e487b7160e01b600052602260045260246000fd5b50919050565b601f8211156200023b57600081815260208120601f850160051c81016020861015620002165750805b601f850160051c820191505b81811015620002375782815560010162000222565b5050505b505050565b81516001600160401b038111156200025c576200025c6200019b565b62000274816200026d8454620001b1565b84620001ed565b602080601f831160018114620002ac5760008415620002935750858301515b600019600386901b1c1916600185901b17855562000237565b600085815260208120601f198616915b82811015620002dd57888601518255948401946001909101908401620002bc565b5085821015620002fc5787850151600019600388901b60f8161c191681555b5050505050600190811b01905550565b6111ee806200031c6000396000f3fe608060405234801561001057600080fd5b50600436106101735760003560e01c80635911a16a116100de578063a9059cbb11610097578063d539139311610071578063d539139314610378578063d547741f1461039f578063da3d85e8146103b2578063dd62ed3e146103c557600080fd5b8063a9059cbb14610329578063a97f5abe14610337578063bf7e9aa21461034a57600080fd5b80635911a16a146102aa57806370a08231146102ca57806391d14854146102f357806395d89b4114610306578063a217fddf1461030e578063a457c2d71461031657600080fd5b8063282c51f311610130578063282c51f3146102105780632f2ff15d14610237578063313ce5671461024c57806336568abe1461025b578063395093511461026e5780634ead32c61461028157600080fd5b806301ffc9a71461017857806306fdde03146101a0578063095ea7b3146101b557806318160ddd146101c857806323b872dd146101da578063248a9ca3146101ed575b600080fd5b61018b610186366004610ee6565b6103d8565b60405190151581526020015b60405180910390f35b6101a861040f565b6040516101979190610f34565b61018b6101c3366004610f83565b6104a1565b6002545b604051908152602001610197565b61018b6101e8366004610fad565b6104b9565b6101cc6101fb366004610fe9565b60009081526005602052604090206001015490565b6101cc7f3c11d16cbaffd01df69ce1c404f6340ee057498f5f00246190ea54220576a84881565b61024a610245366004611002565b610515565b005b60405160128152602001610197565b61024a610269366004611002565b61053f565b61018b61027c366004610f83565b6105bd565b6101cc61028f36600461102e565b6001600160a01b031660009081526006602052604090205490565b6101cc6102b836600461102e565b60066020526000908152604090205481565b6101cc6102d836600461102e565b6001600160a01b031660009081526020819052604090205490565b61018b610301366004611002565b6105df565b6101a861060a565b6101cc600081565b61018b610324366004610f83565b610619565b61018b6101e8366004610f83565b61024a610345366004610f83565b61069f565b61018b610358366004610f83565b6001600160a01b0391909116600090815260066020526040902054101590565b6101cc7f9f2df0fed2c77648de5860a4cc508cd0818c85b8b8a1ab4ceeef8d981c8956a681565b61024a6103ad366004611002565b61077f565b61024a6103c0366004610f83565b6107a4565b6101cc6103d3366004611049565b61089e565b60006001600160e01b03198216637965db0b60e01b148061040957506301ffc9a760e01b6001600160e01b03198316145b92915050565b60606003805461041e90611073565b80601f016020809104026020016040519081016040528092919081815260200182805461044a90611073565b80156104975780601f1061046c57610100808354040283529160200191610497565b820191906000526020600020905b81548152906001019060200180831161047a57829003601f168201915b5050505050905090565b6000336104af8185856108c9565b5060019392505050565b60405162461bcd60e51b8152602060048201526024808201527f43756c747572616c20746f6b656e7320617265206e6f6e2d7472616e7366657260448201526361626c6560e01b60648201526000906084015b60405180910390fd5b600082815260056020526040902060010154610530816109ed565b61053a83836109fa565b505050565b6001600160a01b03811633146105af5760405162461bcd60e51b815260206004820152602f60248201527f416363657373436f6e74726f6c3a2063616e206f6e6c792072656e6f756e636560448201526e103937b632b9903337b91039b2b63360891b606482015260840161050c565b6105b98282610a80565b5050565b6000336104af8185856105d0838361089e565b6105da91906110c3565b6108c9565b60009182526005602090815260408084206001600160a01b0393909316845291905290205460ff1690565b60606004805461041e90611073565b60003381610627828661089e565b9050838110156106875760405162461bcd60e51b815260206004820152602560248201527f45524332303a2064656372656173656420616c6c6f77616e63652062656c6f77604482015264207a65726f60d81b606482015260840161050c565b61069482868684036108c9565b506001949350505050565b7f9f2df0fed2c77648de5860a4cc508cd0818c85b8b8a1ab4ceeef8d981c8956a66106c9816109ed565b6106d38383610ae7565b6001600160a01b038316600090815260066020526040812080548492906106fb9084906110c3565b92505081905550826001600160a01b03167ff86972f639ef17442fd19d79fc77b142a89f6f71ad3866fb4ee2ffd32591461083604051610772918152604060208201819052601c908201527f43756c747572616c20636f6e747269627574696f6e2072657761726400000000606082015260800190565b60405180910390a2505050565b60008281526005602052604090206001015461079a816109ed565b61053a8383610a80565b7f3c11d16cbaffd01df69ce1c404f6340ee057498f5f00246190ea54220576a8486107ce816109ed565b6107d88383610ba6565b6001600160a01b03831660009081526006602052604090205482106107fe576000610822565b6001600160a01b0383166000908152600660205260409020546108229083906110d6565b6001600160a01b038416600081815260066020526040908190209290925590517f8aa18a43a9d9c58e3c73645b6e337838c03bfa41505d086e9dc3b7ce3a11beb290610772908581526040602082018190526015908201527414195b985b1d1e481bdc8818591a9d5cdd1b595b9d605a1b606082015260800190565b6001600160a01b03918216600090815260016020908152604080832093909416825291909152205490565b6001600160a01b03831661092b5760405162461bcd60e51b8152602060048201526024808201527f45524332303a20617070726f76652066726f6d20746865207a65726f206164646044820152637265737360e01b606482015260840161050c565b6001600160a01b03821661098c5760405162461bcd60e51b815260206004820152602260248201527f45524332303a20617070726f766520746f20746865207a65726f206164647265604482015261737360f01b606482015260840161050c565b6001600160a01b0383811660008181526001602090815260408083209487168084529482529182902085905590518481527f8c5be1e5ebec7d5bd14f71427d1e84f3dd0314c0f7b2291e5b200ac8c7c3b925910160405180910390a3505050565b6109f78133610cd8565b50565b610a0482826105df565b6105b95760008281526005602090815260408083206001600160a01b03851684529091529020805460ff19166001179055610a3c3390565b6001600160a01b0316816001600160a01b0316837f2f8788117e7eff1d82e926ec794901d17c78024a50270940304540a733656f0d60405160405180910390a45050565b610a8a82826105df565b156105b95760008281526005602090815260408083206001600160a01b0385168085529252808320805460ff1916905551339285917ff6391f5c32d9c69d2a47ea670b442974b53935d1edc7fd64eb21e047a839171b9190a45050565b6001600160a01b038216610b3d5760405162461bcd60e51b815260206004820152601f60248201527f45524332303a206d696e7420746f20746865207a65726f206164647265737300604482015260640161050c565b8060026000828254610b4f91906110c3565b90915550506001600160a01b038216600081815260208181526040808320805486019055518481527fddf252ad1be2c89b69c2b068fc378daa952ba7f163c4a11628f55a4df523b3ef910160405180910390a35050565b6001600160a01b038216610c065760405162461bcd60e51b815260206004820152602160248201527f45524332303a206275726e2066726f6d20746865207a65726f206164647265736044820152607360f81b606482015260840161050c565b6001600160a01b03821660009081526020819052604090205481811015610c7a5760405162461bcd60e51b815260206004820152602260248201527f45524332303a206275726e20616d6f756e7420657863656564732062616c616e604482015261636560f01b606482015260840161050c565b6001600160a01b0383166000818152602081815260408083208686039055600280548790039055518581529192917fddf252ad1be2c89b69c2b068fc378daa952ba7f163c4a11628f55a4df523b3ef910160405180910390a3505050565b610ce282826105df565b6105b957610cef81610d31565b610cfa836020610d43565b604051602001610d0b9291906110e9565b60408051601f198184030181529082905262461bcd60e51b825261050c91600401610f34565b60606104096001600160a01b03831660145b60606000610d5283600261115e565b610d5d9060026110c3565b67ffffffffffffffff811115610d7557610d75611175565b6040519080825280601f01601f191660200182016040528015610d9f576020820181803683370190505b509050600360fc1b81600081518110610dba57610dba61118b565b60200101906001600160f81b031916908160001a905350600f60fb1b81600181518110610de957610de961118b565b60200101906001600160f81b031916908160001a9053506000610e0d84600261115e565b610e189060016110c3565b90505b6001811115610e90576f181899199a1a9b1b9c1cb0b131b232b360811b85600f1660108110610e4c57610e4c61118b565b1a60f81b828281518110610e6257610e6261118b565b60200101906001600160f81b031916908160001a90535060049490941c93610e89816111a1565b9050610e1b565b508315610edf5760405162461bcd60e51b815260206004820181905260248201527f537472696e67733a20686578206c656e67746820696e73756666696369656e74604482015260640161050c565b9392505050565b600060208284031215610ef857600080fd5b81356001600160e01b031981168114610edf57600080fd5b60005b83811015610f2b578181015183820152602001610f13565b50506000910152565b6020815260008251806020840152610f53816040850160208701610f10565b601f01601f19169190910160400192915050565b80356001600160a01b0381168114610f7e57600080fd5b919050565b60008060408385031215610f9657600080fd5b610f9f83610f67565b946020939093013593505050565b600080600060608486031215610fc257600080fd5b610fcb84610f67565b9250610fd960208501610f67565b9150604084013590509250925092565b600060208284031215610ffb57600080fd5b5035919050565b6000806040838503121561101557600080fd5b8235915061102560208401610f67565b90509250929050565b60006020828403121561104057600080fd5b610edf82610f67565b6000806040838503121561105c57600080fd5b61106583610f67565b915061102560208401610f67565b600181811c9082168061108757607f821691505b6020821081036110a757634e487b7160e01b600052602260045260246000fd5b50919050565b634e487b7160e01b600052601160045260246000fd5b80820180821115610409576104096110ad565b81810381811115610409576104096110ad565b7f416363657373436f6e74726f6c3a206163636f756e7420000000000000000000815260008351611121816017850160208801610f10565b7001034b99036b4b9b9b4b733903937b6329607d1b6017918401918201528351611152816028840160208801610f10565b01602801949350505050565b8082028115828204841417610409576104096110ad565b634e487b7160e01b600052604160045260246000fd5b634e487b7160e01b600052603260045260246000fd5b6000816111b0576111b06110ad565b50600019019056fea26469706673582212200a90dd55a677aae2d38ae967c1ec9ec496ab4675691431fbbc29141bad61060764736f6c63430008110033",
  "linkReferences": {},
  "deployedLinkReferences": {}
}