{
  "_format": "hh-sol-artifact-1",
  "contractName": "UjuziRegistry",
  "sourceName": "contracts/UjuziRegistry.sol",
  "abi": [
    {
      "inputs": [
        {
          "internalType": "address",
          "name": "_validatorManager",
          "type": "address"
        },
        {
          "internalType": "address",
          "name": "_culturalToken",
          "type": "address"
        }
      ],
      "stateMutability": "nonpayable",
      "type": "constructor"
    },
    {
      "anonymous": false,
      "inputs": [
        {
          "indexed": true,
          "internalType": "uint256",
          "name": "entryId",
          "type": "uint256"
        },
        {
          "indexed": false,
          "internalType": "enum IUjuziRegistry.EntryStatus",
          "name": "oldStatus",
          "type": "uint8"
        },
        {
          "indexed": false,
          "internalType": "enum IUjuziRegistry.EntryStatus",
          "name": "newStatus",
          "type": "uint8"
        }
      ],
      "name": "EntryStatusChanged",
      "type": "event"
    },
    {
      "anonymous": false,
      "inputs": [
        {
          "indexed": true,
          "internalType": "uint256",
          "name": "entryId",
          "type": "uint256"
        },
        {
          "indexed": true,
          "internalType": "bytes32",
          "name": "cid",
          "type": "bytes32"
        },
        {
          "indexed": true,
          "internalType": "address",
          "name": "author",
          "type": "address"
        },
        {
          "indexed": false,
          "internalType": "enum IUjuziRegistry.LicenseType",
          "name": "license",
          "type": "uint8"
        },
        {
          "indexed": false,
          "internalType": "string",
          "name": "language",
          "type": "string"
        },
        {
          "indexed": false,
          "internalType": "string",
          "name": "community",
          "type": "string"
        }
      ],
      "name": "EntrySubmitted",
      "type": "event"
    },
    {
      "anonymous": false,
      "inputs": [
        {
          "indexed": true,
          "internalType": "uint256",
          "name": "entryId",
          "type": "uint256"
        },
        {
          "indexed": true,
          "internalType": "address",
          "name": "validator",
          "type": "address"
        },
        {
          "indexed": false,
          "internalType": "bool",
          "name": "approved",
          "type": "bool"
        },
        {
          "indexed": false,
          "internalType": "uint256",
          "name": "newScore",
          "type": "uint256"
        }
      ],
      "name": "EntryValidated",
      "type": "event"
    },
    {
      "inputs": [
        {
          "internalType": "address",
          "name": "",
          "type": "address"
        },
        {
          "internalType": "uint256",
          "name": "",
          "type": "uint256"
        }
      ],
      "name": "authorEntries",
      "outputs": [
        {
          "internalType": "uint256",
          "name": "",
          "type": "uint256"
        }
      ],
      "stateMutability": "view",
      "type": "function"
    },
    {
      "inputs": [
        {
          "internalType": "bytes32",
          "name": "",
          "type": "bytes32"
        }
      ],
      "name": "cidExists",
      "outputs": [
        {
          "internalType": "bool",
          "name": "",
          "type": "bool"
        }
      ],
      "stateMutability": "view",
      "type": "function"
    },
    {
      "inputs": [
        {
          "internalType": "bytes32",
          "name": "",
          "type": "bytes32"
        }
      ],
      "name": "cidToEntryId",
      "outputs": [
        {
          "internalType": "uint256",
          "name": "",
          "type": "uint256"
        }
      ],
      "stateMutability": "view",
      "type": "function"
    },
    {
      "inputs": [],
      "name": "culturalToken",
      "outputs": [
        {
          "internalType": "contract CulturalToken",
          "name": "",
          "type": "address"
        }
      ],
      "stateMutability": "view",
      "type": "function"
    },
    {
      "inputs": [
        {
          "internalType": "uint256",
          "name": "",
          "type": "uint256"
        }
      ],
      "name": "entries",
      "outputs": [
        {
          "internalType": "bytes32",
          "name": "cid",
          "type": "bytes32"
        },
        {
          "internalType": "address",
          "name": "author",
          "type": "address"
        },
        {
          "internalType": "uint256",
          "name": "timestamp",
          "type": "uint256"
        },
        {
          "internalType": "enum IUjuziRegistry.LicenseType",
          "name": "license",
          "type": "uint8"
        },
        {
          "internalType": "enum IUjuziRegistry.EntryStatus",
          "name": "status",
          "type": "uint8"
        },
        {
          "internalType": "string",
          "name": "language",
          "type": "string"
        },
        {
          "internalType": "string",
          "name": "community",
          "type": "string"
        },
        {
          "internalType": "uint256",
          "name": "validationScore",
          "type": "uint256"
        }
      ],
      "stateMutability": "view",
      "type": "function"
    },
    {
      "inputs": [
        {
          "internalType": "uint256",
          "name": "",
          "type": "uint256"
        },
        {
          "internalType": "uint256",
          "name": "",
          "type": "uint256"
        }
      ],
      "name": "entryValidators",
      "outputs": [
        {
          "internalType": "address",
          "name": "",
          "type": "address"
        }
      ],
      "stateMutability": "view",
      "type": "function"
    },
    {
      "inputs": [
        {
          "internalType": "address",
          "name": "author",
          "type": "address"
        }
      ],
      "name": "getAuthorEntries",
      "outputs": [
        {
          "internalType": "uint256[]",
          "name": "",
          "type": "uint256[]"
        }
      ],
      "stateMutability": "view",
      "type": "function"
    },
    {
      "inputs": [
        {
          "internalType": "uint256",
          "name": "entryId",
          "type": "uint256"
        }
      ],
      "name": "getEntry",
      "outputs": [
        {
          "components": [
            {
              "internalType": "bytes32",
              "name": "cid",
              "type": "bytes32"
            },
            {
              "internalType": "address",
              "name": "author",
              "type": "address"
            },
            {
              "internalType": "uint256",
              "name": "timestamp",
              "type": "uint256"
            },
            {
              "internalType": "enum IUjuziRegistry.LicenseType",
              "name": "license",
              "type": "uint8"
            },
            {
              "internalType": "enum IUjuziRegistry.EntryStatus",
              "name": "status",
              "type": "uint8"
            },
            {
              "internalType": "string",
              "name": "language",
              "type": "string"
            },
            {
              "internalType": "string",
              "name": "community",
              "type": "string"
            },
            {
              "internalType": "uint256",
              "name": "validationScore",
              "type": "uint256"
            },
            {
              "internalType": "bytes32[]",
              "name": "atomHashes",
              "type": "bytes32[]"
            }
          ],
          "internalType": "struct IUjuziRegistry.CulturalEntry",
          "name": "",
          "type": "tuple"
        }
      ],
      "stateMutability": "view",
      "type": "function"
    },
    {
      "inputs": [
        {
          "internalType": "uint256",
          "name": "entryId",
          "type": "uint256"
        }
      ],
      "name": "getEntryValidators",
      "outputs": [
        {
          "internalType": "address[]",
          "name": "",
          "type": "address[]"
        }
      ],
      "stateMutability": "view",
      "type": "function"
    },
    {
      "inputs": [],
      "name": "getTotalEntries",
      "outputs": [
        {
          "internalType": "uint256",
          "name": "",
          "type": "uint256"
        }
      ],
      "stateMutability": "view",
      "type": "function"
    },
    {
      "inputs": [
        {
          "internalType": "uint256",
          "name": "",
          "type": "uint256"
        },
        {
          "internalType": "address",
          "name": "",
          "type": "address"
        }
      ],
      "name": "hasValidated",
      "outputs": [
        {
          "internalType": "bool",
          "name": "",
          "type": "bool"
        }
      ],
      "stateMutability": "view",
      "type": "function"
    },
    {
      "inputs": [
        {
          "internalType": "uint256",
          "name": "entryId",
          "type": "uint256"
        },
        {
          "internalType": "address",
          "name": "validator",
          "type": "address"
        }
      ],
      "name": "hasValidatorApproved",
      "outputs": [
        {
          "internalType": "bool",
          "name": "",
          "type": "bool"
        }
      ],
      "stateMutability": "view",
      "type": "function"
    },
    {
      "inputs": [
        {
          "internalType": "bytes32",
          "name": "cid",
          "type": "bytes32"
        },
        {
          "internalType": "enum IUjuziRegistry.LicenseType",
          "name": "license",
          "type": "uint8"
        },
        {
          "internalType": "string",
          "name": "language",
          "type": "string"
        },
        {
          "internalType": "string",
          "name": "community",
          "type": "string"
        },
        {
          "internalType": "bytes32[]",
          "name": "atomHashes",
          "type": "bytes32[]"
        }
      ],
      "name": "submitEntry",
      "outputs": [
        {
          "internalType": "uint256",
          "name": "",
          "type": "uint256"
        }
      ],
      "stateMutability": "nonpayable",
      "type": "function"
    },
    {
      "inputs": [
        {
          "internalType": "uint256",
          "name": "entryId",
          "type": "uint256"
        },
        {
          "internalType": "enum IUjuziRegistry.EntryStatus",
          "name": "newStatus",
          "type": "uint8"
        }
      ],
      "name": "updateEntryStatus",
      "outputs": [],
      "stateMutability": "nonpayable",
      "type": "function"
    },
    {
      "inputs": [
        {
          "internalType": "uint256",
          "name": "entryId",
          "type": "uint256"
        },
        {
          "internalType": "bool",
          "name": "approve",
          "type": "bool"
        },
        {
          "internalType": "string",
          "name": "notes",
          "type": "string"
        }
      ],
      "name": "validateEntry",
      "outputs": [],
      "stateMutability": "nonpayable",
      "type": "function"
    },
    {
      "inputs": [],
      "name": "validatorManager",
      "outputs": [
        {
          "internalType": "contract ValidatorManager",
          "name": "",
          "type": "address"
        }
      ],
      "stateMutability": "view",
      "type": "function"
    }
  ],
  "bytecode": "0x60806040523480156200001157600080fd5b5060405162001bd238038062001bd2833981016040819052620000349162000083565b600180546001600160a01b039384166001600160a01b03199182161790915560028054929093169116179055620000bb565b80516001600160a01b03811681146200007e57600080fd5b919050565b600080604083850312156200009757600080fd5b620000a28362000066565b9150620000b26020840162000066565b90509250929050565b611b0780620000cb6000396000f3fe608060405234801561001057600080fd5b50600436106101005760003560e01c80638f2efc5311610097578063bae78d7b11610066578063bae78d7b14610260578063e627366f14610280578063eeea8b9d146102a0578063fe55bde9146102c357600080fd5b80638f2efc53146101f35780639cd2f657146102065780639dccdfb014610226578063b30906d41461023957600080fd5b806344a616ed116100d357806344a616ed1461019a5780634990594f146101ba5780634fc5660d146101cd57806357a7afca146101e057600080fd5b80630d9dde67146101055780630f50019f1461014857806312d491c91461015d57806343fc93961461016f575b600080fd5b610133610113366004611318565b600460209081526000928352604080842090915290825290205460ff1681565b60405190151581526020015b60405180910390f35b61015b610156366004611354565b6102d6565b005b6000545b60405190815260200161013f565b600254610182906001600160a01b031681565b6040516001600160a01b03909116815260200161013f565b6101ad6101a8366004611384565b610454565b60405161013f91906113a6565b61015b6101c8366004611441565b6104c0565b6101616101db36600461149d565b61090b565b6101826101ee3660046114c7565b61093c565b610133610201366004611318565b610974565b6101616102143660046114e9565b60056020526000908152604090205481565b610161610234366004611502565b6109c5565b61024c6102473660046114e9565b610dce565b60405161013f98979695949392919061166f565b61027361026e3660046114e9565b610f46565b60405161013f9190611722565b61029361028e3660046114e9565b61120b565b60405161013f91906117e8565b6101336102ae3660046114e9565b60066020526000908152604090205460ff1681565b600154610182906001600160a01b031681565b600054829081106103025760405162461bcd60e51b81526004016102f990611829565b60405180910390fd5b600154604051630935e01b60e21b81523360048201526001600160a01b03909116906324d7806c90602401602060405180830381865afa15801561034a573d6000803e3d6000fd5b505050506040513d601f19601f8201168201806040525081019061036e9190611853565b6103ba5760405162461bcd60e51b815260206004820152601c60248201527f4f6e6c792061646d696e2063616e20757064617465207374617475730000000060448201526064016102f9565b60008084815481106103ce576103ce611870565b600091825260209091206008909102016003818101805492935061010080840460ff1693879361ff00199091169190849081111561040e5761040e6115e8565b0217905550847fd21f6bf52a30ec61d09880a8e8338d458bb86a52c3542f3430504fac78154b7c8286604051610445929190611886565b60405180910390a25050505050565b6001600160a01b0381166000908152600760209081526040918290208054835181840281018401909452808452606093928301828280156104b457602002820191906000526020600020905b8154815260200190600101908083116104a0575b50505050509050919050565b60015460405163facd743b60e01b81523360048201526001600160a01b039091169063facd743b90602401602060405180830381865afa158015610508573d6000803e3d6000fd5b505050506040513d601f19601f8201168201806040525081019061052c9190611853565b61056a5760405162461bcd60e51b815260206004820152600f60248201526e2737ba1030903b30b634b230ba37b960891b60448201526064016102f9565b6000548490811061058d5760405162461bcd60e51b81526004016102f990611829565b60008086815481106105a1576105a1611870565b600091825260208083208984526004825260408085203386529092529220546008909102909101915060ff161561060e5760405162461bcd60e51b8152602060048201526011602482015270105b1c9958591e481d985b1a59185d1959607a1b60448201526064016102f9565b6000600382810154610100900460ff169081111561062e5761062e6115e8565b1461066f5760405162461bcd60e51b8152602060048201526011602482015270456e747279206e6f742070656e64696e6760781b60448201526064016102f9565b600086815260046020908152604080832033808552908352818420805460ff191660019081179091558a8552600384529184208054928301815584529190922090910180546001600160a01b031916909117905584156106e5576006810180549060006106db836118c2565b919050555061070f565b60008160060154116106f8576000610709565b6001816006015461070991906118db565b60068201555b600160009054906101000a90046001600160a01b03166001600160a01b0316632993946c6040518163ffffffff1660e01b8152600401602060405180830381865afa158015610762573d6000803e3d6000fd5b505050506040513d601f19601f8201168201806040525081019061078691906118f4565b8160060154106108be5760038101805461010080820460ff1692600192909161ff001990911690830217905550867fd21f6bf52a30ec61d09880a8e8338d458bb86a52c3542f3430504fac78154b7c8260016040516107e6929190611886565b60405180910390a260025460018301546040516354bfad5f60e11b81526001600160a01b0391821660048201526032602482015291169063a97f5abe90604401600060405180830381600087803b15801561084057600080fd5b505af1158015610854573d6000803e3d6000fd5b50506002546040516354bfad5f60e11b8152336004820152600560248201526001600160a01b03909116925063a97f5abe9150604401600060405180830381600087803b1580156108a457600080fd5b505af11580156108b8573d6000803e3d6000fd5b50505050505b60068101546040805187151581526020810192909252339188917f0f7f685c7315b068339779087dc933fc9b588f245d4657a5c71e9b39b83a5ae4910160405180910390a3505050505050565b6007602052816000526040600020818154811061092757600080fd5b90600052602060002001600091509150505481565b6003602052816000526040600020818154811061095857600080fd5b6000918252602090912001546001600160a01b03169150829050565b60008054839081106109985760405162461bcd60e51b81526004016102f990611829565b505060009182526004602090815260408084206001600160a01b0393909316845291905290205460ff1690565b600088610a025760405162461bcd60e51b815260206004820152600b60248201526a125b9d985b1a590810d25160aa1b60448201526064016102f9565b60008981526006602052604090205460ff1615610a565760405162461bcd60e51b815260206004820152601260248201527143494420616c72656164792065786973747360701b60448201526064016102f9565b6000805460408051610120810182528c81523360208201524291810191909152909190606081018b6003811115610a8f57610a8f6115e8565b8152602001600081526020018a8a8080601f016020809104026020016040519081016040528093929190818152602001838380828437600092019190915250505090825250604080516020601f8b0181900481028201810190925289815291810191908a908a90819084018382808284376000920182905250938552505050602080830191909152604080518883028181018401835289825291909301929189918991829190850190849080828437600092018290525093909452505080546001808201835591805283517f290decd9548b62a8d60345a988386fc84ba6bc95484008f6362f93160ef3e563600890920291820190815560208501517f290decd9548b62a8d60345a988386fc84ba6bc95484008f6362f93160ef3e564830180546001600160a01b0319166001600160a01b0390921691909117905560408501517f290decd9548b62a8d60345a988386fc84ba6bc95484008f6362f93160ef3e56583015560608501517f290decd9548b62a8d60345a988386fc84ba6bc95484008f6362f93160ef3e56690920180549596508695919450919260ff1990911690836003811115610c4257610c426115e8565b021790555060808201518160030160016101000a81548160ff02191690836003811115610c7157610c716115e8565b021790555060a08201516004820190610c8a90826119a6565b5060c08201516005820190610c9f90826119a6565b5060e082015160068201556101008201518051610cc691600784019160209091019061129c565b50505060008b815260056020908152604080832085905560068252808320805460ff1916600190811790915533808552600784528285208054928301815585529290932090920184905560025491516354bfad5f60e11b81526004810191909152600a60248201526001600160a01b039091169063a97f5abe90604401600060405180830381600087803b158015610d5d57600080fd5b505af1158015610d71573d6000803e3d6000fd5b50505050336001600160a01b03168b837fa7003db7d0f216e294a14f8e6a02a33f05e7b9ade86578d186febf4183f506718d8d8d8d8d604051610db8959493929190611a8f565b60405180910390a4509998505050505050505050565b60008181548110610dde57600080fd5b6000918252602090912060089091020180546001820154600283015460038401546004850180549496506001600160a01b0390931694919360ff8083169461010090930416929190610e2f90611923565b80601f0160208091040260200160405190810160405280929190818152602001828054610e5b90611923565b8015610ea85780601f10610e7d57610100808354040283529160200191610ea8565b820191906000526020600020905b815481529060010190602001808311610e8b57829003601f168201915b505050505090806005018054610ebd90611923565b80601f0160208091040260200160405190810160405280929190818152602001828054610ee990611923565b8015610f365780601f10610f0b57610100808354040283529160200191610f36565b820191906000526020600020905b815481529060010190602001808311610f1957829003601f168201915b5050505050908060060154905088565b610f956040805161012081018252600080825260208201819052918101829052906060820190815260200160008152602001606081526020016060815260200160008152602001606081525090565b60005482908110610fb85760405162461bcd60e51b81526004016102f990611829565b60008381548110610fcb57610fcb611870565b6000918252602091829020604080516101208101825260089093029091018054835260018101546001600160a01b031693830193909352600283015490820152600380830154919291606084019160ff9091169081111561102e5761102e6115e8565b600381111561103f5761103f6115e8565b81526020016003820160019054906101000a900460ff166003811115611067576110676115e8565b6003811115611078576110786115e8565b815260200160048201805461108c90611923565b80601f01602080910402602001604051908101604052809291908181526020018280546110b890611923565b80156111055780601f106110da57610100808354040283529160200191611105565b820191906000526020600020905b8154815290600101906020018083116110e857829003601f168201915b5050505050815260200160058201805461111e90611923565b80601f016020809104026020016040519081016040528092919081815260200182805461114a90611923565b80156111975780601f1061116c57610100808354040283529160200191611197565b820191906000526020600020905b81548152906001019060200180831161117a57829003601f168201915b5050505050815260200160068201548152602001600782018054806020026020016040519081016040528092919081815260200182805480156111f957602002820191906000526020600020905b8154815260200190600101908083116111e5575b50505050508152505091505b50919050565b600054606090829081106112315760405162461bcd60e51b81526004016102f990611829565b6000838152600360209081526040918290208054835181840281018401909452808452909183018282801561128f57602002820191906000526020600020905b81546001600160a01b03168152600190910190602001808311611271575b5050505050915050919050565b8280548282559060005260206000209081019282156112d7579160200282015b828111156112d75782518255916020019190600101906112bc565b506112e39291506112e7565b5090565b5b808211156112e357600081556001016112e8565b80356001600160a01b038116811461131357600080fd5b919050565b6000806040838503121561132b57600080fd5b8235915061133b602084016112fc565b90509250929050565b6004811061135157600080fd5b50565b6000806040838503121561136757600080fd5b82359150602083013561137981611344565b809150509250929050565b60006020828403121561139657600080fd5b61139f826112fc565b9392505050565b6020808252825182820181905260009190848201906040850190845b818110156113de578351835292840192918401916001016113c2565b50909695505050505050565b801515811461135157600080fd5b60008083601f84011261140a57600080fd5b50813567ffffffffffffffff81111561142257600080fd5b60208301915083602082850101111561143a57600080fd5b9250929050565b6000806000806060858703121561145757600080fd5b843593506020850135611469816113ea565b9250604085013567ffffffffffffffff81111561148557600080fd5b611491878288016113f8565b95989497509550505050565b600080604083850312156114b057600080fd5b6114b9836112fc565b946020939093013593505050565b600080604083850312156114da57600080fd5b50508035926020909101359150565b6000602082840312156114fb57600080fd5b5035919050565b60008060008060008060008060a0898b03121561151e57600080fd5b88359750602089013561153081611344565b9650604089013567ffffffffffffffff8082111561154d57600080fd5b6115598c838d016113f8565b909850965060608b013591508082111561157257600080fd5b61157e8c838d016113f8565b909650945060808b013591508082111561159757600080fd5b818b0191508b601f8301126115ab57600080fd5b8135818111156115ba57600080fd5b8c60208260051b85010111156115cf57600080fd5b6020830194508093505050509295985092959890939650565b634e487b7160e01b600052602160045260246000fd5b6004811061135157634e487b7160e01b600052602160045260246000fd5b611625816115fe565b9052565b6000815180845260005b8181101561164f57602081850181015186830182015201611633565b506000602082860101526020601f19601f83011685010191505092915050565b8881526001600160a01b0388166020820152604081018790526000610100611696886115fe565b8760608401526116a5876115fe565b8660808401528060a08401526116bd81840187611629565b905082810360c08401526116d18186611629565b9150508260e08301529998505050505050505050565b600081518084526020808501945080840160005b83811015611717578151875295820195908201906001016116fb565b509495945050505050565b60208152815160208201526000602083015161174960408401826001600160a01b03169052565b50604083015160608301526060830151611766608084018261161c565b50608083015161177960a084018261161c565b5060a08301516101208060c0850152611796610140850183611629565b915060c0850151601f19808685030160e08701526117b48483611629565b60e08801516101008881019190915288015187820390920184880152935090506117de83826116e7565b9695505050505050565b6020808252825182820181905260009190848201906040850190845b818110156113de5783516001600160a01b031683529284019291840191600101611804565b60208082526010908201526f125b9d985b1a5908195b9d1c9e48125160821b604082015260600190565b60006020828403121561186557600080fd5b815161139f816113ea565b634e487b7160e01b600052603260045260246000fd5b60408101611893846115fe565b83825261189f836115fe565b8260208301529392505050565b634e487b7160e01b600052601160045260246000fd5b6000600182016118d4576118d46118ac565b5060010190565b818103818111156118ee576118ee6118ac565b92915050565b60006020828403121561190657600080fd5b5051919050565b634e487b7160e01b600052604160045260246000fd5b600181811c9082168061193757607f821691505b60208210810361120557634e487b7160e01b600052602260045260246000fd5b601f8211156119a157600081815260208120601f850160051c8101602086101561197e5750805b601f850160051c820191505b8181101561199d5782815560010161198a565b5050505b505050565b815167ffffffffffffffff8111156119c0576119c061190d565b6119d4816119ce8454611923565b84611957565b602080601f831160018114611a0957600084156119f15750858301515b600019600386901b1c1916600185901b17855561199d565b600085815260208120601f198616915b82811015611a3857888601518255948401946001909101908401611a19565b5085821015611a565787850151600019600388901b60f8161c191681555b5050505050600190811b01905550565b81835281816020850137506000828201602090810191909152601f909101601f19169091010190565b611a98866115fe565b858152606060208201526000611ab2606083018688611a66565b8281036040840152611ac5818587611a66565b9897505050505050505056fea2646970667358221220c371573072c27aa19fae29141e60339e0a9e9bacf385c84f546d809e1580e91c64736f6c63430008110033",
  "linkReferences": {},
  "deployedLinkReferences": {}
}